:020000020000FC
:100000000FEF0DBF18E01EBF00E8009361000E94D3
:10001000720003E0009361000FEF0AB900E00BB932
:1000200000E204B90FE105B90FE707B900E008B92C
:1000300020E030E040E0432B14E0022F000F1A953F
:10004000E9F7402B4BB950E0520F530F30FD449A63
:1000500030FF449831FD459A31FF4598189B0E9426
:100060004000199B0E9450001A9B0E9448001B9B55
:100070000E9458001C9B24C000E008B92D98DACFDC
:100080000E947900189BFCCF239524FD2FE0089552
:100090000E9472001A9BFCCF339534FD3FE0089517
:1000A0000E947900199BFCCF2A9527FD20E0089536
:1000B0000E9472001B9BFCCF3A9537FD30E00895FB
:1000C0000E94720058B954FD2D9A54FF2D9830FDAE
:1000D000449A30FF449831FD459A31FF45981C9B66
:1000E000EFCFA8CF15E00AEF0A95F1F71A95D9F7E7
:1000F00008951FE00AEF0A95F1F71A95D9F70895C8
:00000001FF
