:020000020000FC
:100000000FEF0DBF18E01EBF00E8009361000E94D3
:100010006E0003E0009361000FEF0AB900E00BB936
:1000200000E204B90FE105B90FE707B900E008B92C
:1000300020E030E040E0432B14E0022F000F1A953F
:10004000E9F7402B4BB950E0520F530F30FD449A63
:1000500030FF449831FD459A31FF4598189B0CC0FC
:10006000199B1AC01A9B10C01B9B1EC01C9B24C04E
:1000700000E008B92D98DECF0E947500189BFCCFD8
:10008000239524FD2FE0D6CF0E946E001A9BFCCF53
:10009000339534FD3FE0CECF0E947500199BFCCF15
:1000A0002A9527FD20E0C6CF0E946E001B9BFCCF47
:1000B0003A9537FD30E0BECF0E946E0058B954FD2E
:1000C0002D9A54FF2D9830FD449A30FF449831FD0D
:1000D000459A31FF45981C9BEFCFACCF15E00AEF56
:1000E0000A95F1F71A95D9F708951FE00AEF0A95D6
:0800F000F1F71A95D9F7089504
:00000001FF
