:020000020000FC
:100000000FEF0DBF18E01EBF00E8009361000E94D3
:10001000580003E0009361000FEF0AB900E00BB94C
:1000200000E204B90FE105B90FE707B900E008B92C
:1000300020E030E040E0432B14E0022F000F1A953F
:10004000E9F7402B4BB930FD449A30FF449831FD1D
:10005000459A31FF4598189B0E943800199B0E94D1
:1000600048001A9B0E9440001B9B0E945000E2CF58
:100070000E945F00189BFCCF239524FD2FE008957C
:100080000E9458001A9BFCCF339534FD3FE0089541
:100090000E945F00199BFCCF2A9527FD20E0089560
:1000A0000E9458001B9BFCCF3A9537FD30E0089525
:1000B00015E00AEF0A95F1F71A95D9F708951FE0B0
:0C00C0000AEF0A95F1F71A95D9F7089598
:00000001FF
